:02000000052ACF
:10000800FF00030E8301A9000A08AA008A017008EC
:10001800A0008B1C23288B1000302606031D1628F1
:1000280000302506031D1D280130A5000030A6005C
:100038001F28A501A6010130A1000030A200200858
:10004800F0002A088A00290E8300FF0E7F0E09009F
:1000580083120313F8010830FC00700DF80D7408C2
:10006800F80203183928F8070310F00DFC0B3128A3
:0200780008007E
:10007A00710DF80DF90D7408F8027508031C750F57
:10008A00F902F00DF10D0F30FC00710DF80DF90DAC
:10009A007408701C5628F8027508031C750FF902BB
:1000AA005B28F80775080318750FF907F00DF10DAD
:1000BA00FC0B4A28701867287408F8077508031893
:0800CA00750FF90700000800A2
:1000D20083120313880100302406031D72280030A6
:1000E2002306031D77288816081497280030240653
:1000F200031D7D2801302306031D822808160814DB
:10010200972800302406031D882802302306031D89
:100112008D2888150815972800302406031D93287A
:0E01220003302306031D972888158814080053
:1001300083120313A30A0319A40A00302406031D23
:10014000A32804302306031DA728A301A401080047
:100150000B3083120313FB002630FC005D30FD00E2
:10016000FD0BB028FC0BB028FB0BB02800000000F2
:02017000080085
:1001720083120313B0012F08093C0318DB280A304D
:10018200F4002F08F0002C207008B0007008B000B6
:10019200B00D3010B00D3010B00D3010B00D301069
:1001A2000A30F4002F08F0002C207808F0007008C4
:0E01B200B004DD282F08B0003008F00008006F
:1001C000831203137408003A031DEF287508003AE0
:1001D000031DEF28FF30F0007F30F1004829831223
:1001E0000313FD01F901F8017108700403190034CB
:1001F00071087506FA00FA1BFD09FB01F51F0529B8
:10020000F409F509F40A0319F50AF11F0C29F0099C
:10021000F109F00A0319F10A71087504FA00FA1BD2
:1002200021293D207B183429FD1F0034F009F109F4
:10023000F00A0319F10AF809F909F80A0319F90A89
:100240000034F51F3029F11B2C297108F9007008C2
:10025000F800F101F0011429F101F001F00A003475
:10026000F109F009FB0A1129F80A0319F90A7408BF
:100270007802031D142975087902031D1429F90158
:10028000F801F00A0319F10AF11F14290000FF34E4
:02029000080064
:10029200E83083120313F4000330F5002B08F0005A
:1002A2002C08F100E0207008AD007108AE002108B2
:1002B200220403196D2900302406031D622903302C
:1002C200230603196D2900302406031D6A29013013
:1002D200230603196D298B292D08AF00B920700858
:1002E200870000302E06031D782900302D06031DDD
:1002F2007B298B2900302E06031D812903302D0610
:10030200031D852998206920A8200130AD02031C15
:06031200AE0358290800AB
:100318000030831203132406031D9429003023069A
:10032800031D9C29D830AB005930AC004921A929BC
:1003380000302406031DA22902302306031DA92923
:0C0348009830AB003A30AC0049210800AE
:0E0354008312031328088A002708820008007D
:100362006920210822040319B729D0298C212108E8
:1003720022040319CD2900302406031DC2290130AD
:1003820023060319CD2900302406031DCA29033090
:1003920023060319CD29CE2998206920B229080005
:1003A2006920210822040319D729F8298618DA2995
:1003B200D22900302406031DE02900302306031D44
:1003C200E829B830AB000B30AC004921F5290030E8
:1003D2002406031DEE2902302306031DF529B83039
:1003E200AB000B30AC00492198206920D2290800CB
:1003F200AA218A110A128000840AA70A0319A80AEC
:08040200F003031DF9290800B5
:10040A0083120313A101A201A301A401A501A6015C
:10041A008316061486148B170B168113870188011D
:10042A00831288018701A101A20187018801003096
:10043A002606031D222A00302506031D262AB1217D
:08044A00272AD121182A282AD3
:02400E004A2F37
:00000001FF
